:100000000C9431000C944E000C944E000C944E0055
:100010000C944E000C944E000C944E000C944E0028
:100020000C944E000C944E000C944E000C944E0018
:100030000C944E000C944E000C944E000C944E0008
:100040000C944E000C944E000C944E000C944E00F8
:100050000C944E006000620067006A006E0074003D
:100060007B0011241FBECFE5D4E0DEBFCDBF10E082
:10007000A0E6B0E0EEE8F3E002C005900D92AE36E7
:10008000B107D9F720E0AEE6B0E001C01D92A43779
:10009000B207E1F70E94E0000C94C5010C94000047
:1000A000A09AA19AA29AA39AA49AA59A089590E0D8
:1000B0008730910500F5FC01E65DFF4F0C949C0133
:1000C000A89801C0A89AA998AA98AB980BC0A8981C
:1000D000A99AFACFA898A998AA9AF7CFA898A99808
:1000E000AA98AB9AAC9805C0A898A998AA98AB987A
:1000F000AC9AAD980895A898A998AA98AB98AC988E
:10010000AD9A0895959A8D9A0895C098B89A0895D1
:10011000C09A0895C0980895C19AB99A0895C1984F
:100120000895C19A08951ABA1BBA80EC87B983E979
:1001300086B90895806C87B988E08A95F1F7369A78
:10014000349BFECF349A84B195B108955D9BFECF68
:100150008CB980E090E0089510BC81E089B959988D
:1001600080E68BB98DE18AB98EE880BDBD9A08958D
:100170008CE083BF8FEF8CBF0895BB9AC3988F9A92
:100180008FE185BD13BC089583BD0895C39A08957A
:10019000C3980895379880B7886080BF17B8BA9A17
:1001A000C29A82E188B908958C9A19BC18BC81E280
:1001B0008FBD89E08EBD089590E099BD88BD0895FA
:1001C0000E94AC0080E690E09093710080937000F4
:1001D0000E9493000E9450000E9482000E948500AD
:1001E0000E94D4000E94B8000E94BD000E948800B6
:1001F0000E948F008FEF0E94DC0000E010E088E595
:10020000882E912CA12CB12C95E7692E712C2AE017
:10021000C22ED12C95989801A8ECB0E00E94A201C2
:10022000A50194010E947A012115310519F0215090
:100230003109FACF959A82E00E949A007C010E94CF
:10024000CA00449AC0E0D0E0449905C02196C83B5A
:100250008BE0D807C9F780E7E816F10488F48DE051
:10026000E816F10430F00115110561F00150110993
:1002700009C0083B8BE0180728F40F5F1F4F02C02E
:1002800000E010E00E94930087E00E949A00CF5F98
:10029000D340C80FD91FD7FF02C0C0E0D0E0CE01C5
:1002A000B3010E946601862F0E945700CE01B6015D
:1002B0000E946601862F0E94C4000E94C60008B6F4
:1002C00001FEFDCF88B7826088BFA4CF97FB072EC1
:1002D00016F4009407D077FD09D00E94B10107FC05
:1002E00005D03EF4909581959F4F08957095619546
:1002F0007F4F0895A1E21A2EAA1BBB1BFD010DC062
:10030000AA1FBB1FEE1FFF1FA217B307E407F507C5
:1003100020F0A21BB30BE40BF50B661F771F881FA1
:10032000991F1A9469F760957095809590959B0137
:10033000AC01BD01CF010895EE0FFF1F0590F491B0
:10034000E02D0994A29FB001B39FC001A39F700D3F
:10035000811D1124911DB29F700D811D1124911DCD
:100360000895AA1BBB1B51E107C0AA1FBB1FA617FC
:10037000B70710F0A61BB70B881F991F5A95A9F74E
:0E03800080959095BC01CD010895F894FFCFB3
:0E038E000000000200000000A60000000000B9
:00000001FF
